:020000040800F2
:1000000038060020450100082F200008B113000821
:100010002B200008E10D00082F2F00080000000031
:100020000000000000000000000000002D25000876
:10003000850F000800000000ED20000841260008A0
:100040005F0100085F0100085F0100084D240008FF
:100050005F0100085F0100085F0100085F01000800
:100060005F0100085F0100085F0100085F010008F0
:100070005F0100085F0100085F0100085F010008E0
:100080005F0100085F0100085F0100085F010008D0
:100090005F0100085F0100085F0100085F010008C0
:1000A0005F0100085F0100085F0100085F010008B0
:1000B0005F010008C92600085F0100085F01000811
:1000C0005F0100085F0100085F0100085F01000890
:1000D0005F0100085F0100085F0100085F01000880
:1000E0005F0100085F0100085F0100085F01000870
:1000F0005F0100085F0100085F0100085F01000860
:100100005F0100085F0100085F0100085F0100084F
:100110005F0100085F0100085F0100085F0100083F
:100120005F0100085F0100085F0100085F0100082F
:10013000DFF80CD000F0ECFB00480047653A0008FF
:10014000380600200648804706480047FEE7FEE7DD
:10015000FEE7FEE7FEE7FEE7FEE7FEE7FEE7FEE777
:10016000692600083101000840EA01039B0703D01B
:1001700009E008C9121F08C0042AFAD203E011F8E6
:10018000013B00F8013B521EF9D270470FB400B595
:1001900089B00BA800906A4603480A9900F078FAE3
:1001A00009B05DF814FB0000280200202DE9FF5F74
:1001B0001D464FF0FF3BD5E9014691465F464FF0A3
:1001C0000008A9697F1C01988847296A82468847E8
:1001D0000028F6D1BAF1FF3F0CD024F4C064002E01
:1001E00019DD600614D5BAF12B0F09D0BAF12D0F25
:1001F0000ED103E0584604B0BDE8F09F44F480649B
:10020000A9697F1C01988847761E8246002E02DD70
:10021000BAF1300F03D0B9F1000F26D032E0A9694E
:10022000761E44F400747F1C019888478246002E95
:1002300005DDBAF1780F06D0BAF1580F03D0B9F145
:10024000000F10D01EE0B9F1000F02D0B9F1100F6D
:1002500018D1A969761E24F400747F1C0198884780
:100260008246102002E0082000E00A20814609E0D2
:1002700008FB0908A969761E44F400747F1C0198E4
:1002800088478246002E05DD4946504600F0F2F9C7
:100290000028EDDAE96901988847A00502D46FF0DB
:1002A0000100A8E7E00725D1600613D5600502D557
:1002B000C8F1000000E0404629680A1D2A6009686C
:1002C000220501D5087015E0220701D5088011E04C
:1002D00008600FE02868011D29600068210502D52B
:1002E00080F8008006E0210702D5A0F8008001E038
:1002F000C0F8008038467EE72DE9FE4F804681EA4F
:100300000300C00F0C46009021F0004123F000458F
:10031000B8EB0200A94105D24046214690461C4652
:100320000B46024623F00040104347D0270DC7F389
:100330000A00C3F30A510290401A019040286BDA78
:10034000C3F3130040F4801B0098924620B10023B1
:10035000D2EB030A63EB0B0B01985946C0F1400244
:10036000504600F066F906460D4650465946019A39
:1003700000F06EF910EB08006141002487EA115289
:1003800084EAE7731A4340D0009A62B3019A012AC3
:100390004FEA075215DC001B61EB02014FF00042EF
:1003A00002EA0752CDE90042001C41F580113246B5
:1003B0002B4600F0BDF903B0BDE8F08F4046214662
:1003C000F9E7001B61EB0201001C41F580130018E6
:1003D0005B412018A2F5001747EB030140EAD570F6
:1003E000B6196D4111E06D084FEA360645EAC07551
:1003F0004FEA0752001B61EB0201001C41F580111E
:1004000049084FEA30000019514132462B4603B0EB
:10041000BDE8F04F00F07DB90098012240000023B4
:10042000D0EB020263EBE073009821464FEAE074E0
:10043000B8EB000061EB0401E9E783F000435BE700
:1004400081F0004158E72DE9F04D81EA030404F002
:10045000004B21F0004514464FF0000A23F0004104
:1004600050EA050220D054EA01021DD0C5F30A5714
:100470000246C5F31303C1F31300C1F30A5640F457
:10048000801543F48013A7EB0608101BD64608F22C
:10049000FD3873EB050002D308F1010801E0921862
:1004A0005B41B8F1000F03DA00200146BDE8F08D92
:1004B00000204FF48011064684460EE0171B73EBB4
:1004C000050705D3121B63EB050306434CEA010C39
:1004D00049084FEA300092185B4150EA0107EDD11C
:1004E00052EA030012D082EA040083EA05010843BD
:1004F00005D0101BAB4106D20122002306E00022EA
:100500004FF0004302E06FF0010253101AEB0600B7
:100510004CEB085110EB0A0041EB0B01BDE8F04D2C
:1005200000F0F7B80EB5C10F80EAE0700844CA07C2
:10053000002140F233438DE80E000A460B4600F0DE
:10054000F7F803B000BD00F0004230F000400AD0E0
:10055000C10D01F56071C0F3160042EA0151C208F5
:1005600040071143704700200146704701F00043E7
:1005700030B421F0004150EA010206D00A0DA2F584
:100580006072C1F31301002A02DC30BC0020704706
:10059000440F44EAC104C100E01830BC00EBC25073
:1005A00000F080B830B50B4601460020202201241F
:1005B00009E021FA02F59D4205D303FA02F5491B31
:1005C00004FA02F52844151EA2F10102F1DC30BD47
:1005D0002DE9F05F0546002092469B468846064678
:1005E000814640241BE0284641464746224600F00B
:1005F000B7F953465A46C01A914110D311461846CE
:10060000224600F016F82D1A67EB01084F462246E5
:100610000120002100F00DF817EB00094E41201ECB
:10062000A4F10104DFDC484631462A464346BDE8D2
:10063000F09F202A04DB203A00FA02F100207047E4
:100640009140C2F1200320FA03F319439040704710
:10065000202A06DBCB17203A41FA02F043EAE07386
:1006600006E041FA02F3D040C2F120029140084373
:10067000194670473A2800D2303820F02002412A2B
:1006800001D3A2F13700884201D34FF0FF30704709
:10069000024B9361024BD36100F078B959380008DE
:1006A000510900080029A8BF7047401C490008BF35
:1006B00020F00100704710B4B0FA80FC00FA0CF092
:1006C00050EA010404BF10BC704749B1CCF12004CA
:1006D00021FA04F411FA0CF118BF01212143084357
:1006E000A3EB0C01CB1D4FEA00614FEA102042BF83
:1006F000002010BC704700EBC35010440029A4BF79
:1007000010BC7047401C490008BF20F0010010BC1D
:10071000704710B5141E73F1000408DA401C41F153
:10072000000192185B411A4301D120F0010010BD75
:100730002DE9F04D92469B4611B1B1FA81F202E0EB
:10074000B0FA80F220329046FFF773FF04460F465E
:1007500040EA0A0041EA0B0153465A46084313D0C7
:10076000114653EA010019D0C8F14002504600F08A
:10077000F7F805460E46504659464246FFF759FFE0
:10078000084305D0012004E020463946BDE8F08D3D
:100790000020054346EAE0762C4337430A98630578
:1007A000E40AA0EB08000022FD0A44EA47540A309C
:1007B00002D500200146E9E7010510196941DDE98C
:1007C000084500196941BDE8F04DA2E72DE9FE4F4B
:1007D00081EA030404F0004421F0004100944FF04A
:1007E000000B23F0004350EA01045ED052EA0304F8
:1007F0005BD0C3F30A54C1F30A552C44A4F2F3347A
:100800000194A0FB0254C1F3130141F48011C3F31E
:10081000130343F4801301FB024400FB034E840ADC
:10082000970A44EA815447EA8357A4FB0768029574
:100830008D0A05FB07854FEA932C04FB0C54270512
:10084000029D4FEA065847EA1637B5EB08056EEBEE
:10085000070C870E920E47EA811742EA8312A7FB24
:100860000201B6EB0B0164EB00042B0D43EA0C33E1
:100870005E1844EB1C50DA465146E7FB0201C5F313
:1008800013044FEA0B3343EA14534FEA0432019C3A
:1008900043EA0603A4F10C040294009CCDE900B4E1
:1008A000FFF746FF03B0BDE8F08F00200146F9E7EF
:1008B000C1F30A52C1F3130140F2FF3341F4801136
:1008C0009A4202DA00200146704740F233439A42CE
:1008D000A2F2334202DC524200F042B8FFF7A9BE56
:1008E00030B5041E71F1000404DB4FF000444042B7
:1008F00064EB0101141E73F1000405DB1C464FF08C
:100900000043524263EB0403994208BF904230BD5A
:10091000064C074D06E0E06840F0010394E807004C
:1009200098471034AC42F6D3FFF706FC508200081B
:1009300070820008094910B508784C1C18B1401E97
:100940000870205C10BD00210720ABBE207010BDD8
:1009500002490878421C0A707047000030020020EB
:10096000202A04DB203A21FA02F00021704721FA04
:1009700002F3D040C2F1200291400843194670476B
:10098000026811441378016018467047D160044929
:1009900051610449116200211161114600F00AB849
:1009A00081090008A9090008C0B24FF4F05100F015
:1009B00097B900002DE9F34F8BB04FF0000801F11B
:1009C0000C000C464FF0010B46460DF1080A019051
:1009D0006269012101989047051E2DD0252D2CD04C
:1009E000216A8847C0B16269012101989047216A54
:1009F00088470028F7D1411E62690198904700E0BE
:100A0000761CA1690B988847216A88470028F7D18E
:100A1000E1690B988847DBE7A1690B98884707468F
:100A2000A84201D1761CD3E7E1690B9888477F1C67
:100A300002D1B8F1000F6FD046E1002762693D4650
:100A40003946019890472A2804D16269012101980A
:100A500090470125DFF8849262690121019890474F
:100A6000A0F130010A290AD24F45E5DC07EB8701E6
:100A700000EB4107303FDFD445F01005ECE7E90615
:100A800001D46FF000476C280AD04C2814D0682895
:100A900015D06A280DD074281CD07A281AD01DE0F1
:100AA00062690121019890476C2802D045F0040545
:100AB00014E045F002050DE045F020050AE062690A
:100AC000012101989047682802D045F0080505E00B
:100AD00045F400656269012101989047C4E9015716
:100AE00065283DD019DC58287AD00CDC452837D051
:100AF00004DC252826D0412831D131E046282FD0EA
:100B000047282CD12CE05B2877D0612828D0632897
:100B10007CD0642823D15AE0D0E06F2848D008DC8C
:100B200066281DD067281BD0692821D06E2816D1D1
:100B300027E0702845D0732868D0752847D07828DA
:100B40000DD14DE0A1690B988847054625283FF453
:100B500069AFE1690B9888476D1C3FF46AAFB3E059
:100B600023466A466FF001000B99AFF300809EE0C8
:100B700045F040006060A80723464FF0000236D4DD
:100B80003EE0E8077FF447AF2068011D2160006860
:100B9000290501D506701BE7290701D5068017E74F
:100BA000A90703D5F117C0E9006111E706600FE757
:100BB00045F040006060A80723464FF0080216D4B5
:100BC0001EE040F60E0125EA0100606016E045F0E7
:100BD00040006060A80723464FF00A0207D40FE0E8
:100BE00045F040006060A80708D5234610226FF04A
:100BF00001000B99AFF3008059E007E02346102273
:100C00006FF001000B99FFF7D1FA50E04FF00009A7
:100C10004F464B46632802D05B2806D040E0E806EA
:100C200001D40120A06001273AE062690121019806
:100C300090475E2805D14FF0010962694946019845
:100C40009047216939B900210A46534643F82120CB
:100C5000491C0829FADBB0B3216969B9C11700EB57
:100C6000D16253110AEB830122F01F02821A012084
:100C70000B68904003430B60626901210198904723
:100C80005D28E8D1B9F1000F09D00020514651F894
:100C90002020D24341F82020401C0828F7DB02AB7B
:100CA000224600976FF001000B99AFF300800028F7
:100CB0000CDA401C08D1BBF1000F05D04FF0FF301B
:100CC0000DB0BDE8F08FFFE74046F9E7E90701D135
:100CD00008F1010806444FF0000B79E6CCCCCC0CAF
:100CE0007F2801D9002208E0064A02EB5002C00723
:100CF000127800D1120902F00F0201209040084042
:100D0000704700004C7F000870B58C1810F8015B2C
:100D100015F0070301D110F8013B2A1106D110F894
:100D2000012B03E010F8016B01F8016B5B1EF9D198
:100D30002B0705D40023521E0DD401F8013BFAE71E
:100D400010F8013BCB1A921C03E013F8015B01F889
:100D5000015B521EF9D5A142D8D3002070BD10B559
:100D6000012001F0F5F9002001F0F2F910BD0000BA
:100D700008B5014600200090034800900098084400
:100D800000900098008808BD006C004008B5002263
:100D90000092044A0092009A02440092009A116064
:100DA00008BD0000006C004008B50121042001F0DE
:100DB000BFF94FF48070ADF8000010208DF80300EB
:100DC00003208DF802006946044800F0C4F94FF48E
:100DD0008071024800F09BFA08BD00000008014045
:100DE00000BFFEE710B500241548006820F47040ED
:100DF000134908600846006840F40040086004E0B9
:100E0000601CC4B2012000F0FBF80E48006808B175
:100E1000642CF5DB642C01DB012010BD002404E010
:100E2000601CC4B2012000F0EBF80648006808B965
:100E3000642CF5DB642C01DB0120EEE70020ECE7FD
:100E4000040801402C01214208B50121042001F0D1
:100E50006FF94FF40060ADF8000003208DF8020038
:100E60006946064800F077F94FF40061034800F046
:100E700050FA00F067F8FFF7B5FF08BD0008014021
:100E800010B5002404E0601CC4B2012000F0B8F8E2
:100E90000D48006808B1642CF5DB002404E0601CF8
:100EA000C4B2012000F0ACF80748006808B9642C0F
:100EB000F5DB282000F0A4F80348006808B1012001
:100EC00010BD0020FCE700002C01214270B5002479
:100ED000002506E06006040EFFF7D2FF0443681CFD
:100EE000C5B2082DF6DB204670BD7CB505460E4622
:100EF00000F028F8FFF776FFF8B9002405E0FFF7C7
:100F0000E5FF0DF80400601CC4B2052CF7DB9DF86A
:100F100000009DF8011008449DF8021008449DF857
:100F2000031008449DF80410884208D19DF8000081
:100F300030709DF80200287001E001207CBD002087
:100F4000FCE7000010B50C48006820F470400A4926
:100F500008600846006840F44050086000200749D7
:100F60000860142000F02EF801200549C1F8AC01FA
:100F70001E2000F045F810BD04080140AC012142DC
:100F8000000021427047000010B504466FF00400D5
:100F900001F042FBE11704EB5171C1F3C701074AAD
:100FA00011701046007800EB4001C1EBC0104FF605
:100FB000FF7101EAC0000249088010BD180100203D
:100FC0001A01002001460D4A12884A434FF0E023DF
:100FD0005A6100229A6101221A6100BF4FF0E0229B
:100FE000106900F001021AB100F48032002AF5D035
:100FF00000224FF0E0231A619A6170471A01002025
:1010000001460D4A12784A434FF0E0235A6100220C
:101010009A6101221A6100BF4FF0E022106900F0CE
:1010200001021AB100F48032002AF5D000224FF0FC
:10103000E0231A619A6170471801002051B18200C3
:10104000A2F1C042126842F001038200A2F1C04244
:10105000136009E08200A2F1C0421268034B1A40FB
:101060008300A3F1C0431A6070470000FEFF0F0029
:10107000D0E901121143C268114302691143426968
:10108000114382691143C2691143026A1143426AE2
:101090001143826A1143C26A1143026B1143026811
:1010A0009200A2F1C0421160816808290BD1016849
:1010B0008900A1F1C041096841F04002016889003E
:1010C000A1F1C0410A60416B0968426B526841EA74
:1010D0000211426B926841EA0221426B928941EA15
:1010E0000241426B128A41EA0251426B127D41EA8F
:1010F0000261426B926911430268521C9200A2F194
:10110000C0421160C16AB1F5804F1BD1816B096883
:10111000826B526841EA0211826B926841EA0221B5
:10112000826B128A41EA0251826B127D41EA0261AE
:10113000826B9269114302689200A2F1C042C2F828
:10114000041107E06FF0704201688900A1F1C0410D
:10115000C1F8042170472DE9F04102460025002620
:10116000002000230024002791F803C00CF00F0595
:1011700091F803C00CF0100CBCF1000F03D091F8F3
:1011800002C04CEA050591F800C0BCF1000F31D057
:10119000146800202BE04FF0010C0CFA00F3B1F8BA
:1011A00000C00CEA03069E4220D183004FF00F0CD2
:1011B0000CFA03F7BC4305FA03FC4CEA040491F86B
:1011C00003C0BCF1280F06D14FF0010C0CFA00FC53
:1011D000C2F814C00AE091F803C0BCF1480F05D171
:1011E0004FF0010C0CFA00FCC2F810C0401C08289B
:1011F000D1D31460B1F800C0BCF1FF0F34DD5468E6
:1012000000202EE000F1080C4FF0010808FA0CF362
:10121000B1F800C00CEA03069E4221D183004FF0D2
:101220000F0C0CFA03F7BC4305FA03FC4CEA040468
:1012300091F803C0BCF1280F05D100F1080C08FAA1
:101240000CF8C2F8148091F803C0BCF1480F07D124
:1012500000F1080C4FF0010808FA0CF8C2F81080F1
:10126000401C0828CED35460BDE8F081F0B50A4692
:10127000002300240021002500F00046B6F1004FB5
:1012800002D11D4EF16901E01B4E7168C0F30345A8
:1012900083B200F44016B6F5401F08D121F070610A
:1012A000154E766826F07066134F7E6012E000F4EB
:1012B0008016B6F5801F06D1032606FA05F4A14371
:1012C00041F0706106E0460D360103FA06F6B143BF
:1012D00041F0706122B1460D360103FA06F6314342
:1012E00000F00046B6F1004F02D1034EF16101E07B
:1012F000014E7160F0BD0000000001400246002078
:1013000093680B400BB1012000E000207047416161
:101310007047016170470000F0B58DB0044630227F
:10132000224901A8FEF720FF6069451E642195FB54
:10133000F1F12846EA1705EB9272C1EBA2014FF4D6
:10134000C87295FBF2F28F186069C11700EB9171BA
:101350008910A0EB810191B96422616991FBF2F3DC
:1013600002FB131131B99200616991FBF2F302FBA8
:10137000131121B92169022901DD012600E00026AF
:1013800040F26D1005FB00712069401E01AA52F861
:1013900020000844E16808440644072096FBF0F169
:1013A00000FB1160A0610DB0F0BD0000BC4300085F
:1013B00000BFFEE710B504462CB14FF4805105483C
:1013C000FFF7A5FF04E04FF480510248FFF7A1FFAB
:1013D00010BD0000001401402DE9F04106460F4603
:1013E00014461D462B4622463946304600F024FA64
:1013F00004FB05F00249098800F0BDF8BDE8F08162
:101400004201002001B502E00098401E00900098C3
:101410000028F9D108BD00002DE9F05F804689461B
:101420001646A6F120001FFA80FA1E49096889882D
:101430001C4A1268D28801FB02F0C11700EB5171FF
:10144000C1F3C7071748006800680AFB070B154877
:101450000068C3881348006882884946404600F007
:10146000EBF92C2000F092FC002416E0002510E09F
:101470001BF8040080212941084020B10A48008857
:1014800000F088FC03E00948008800F083FC681C39
:10149000C5B2082DECDB601CC4B2BC42E6DBBDE883
:1014A000F09F00003C01002040010020420100208C
:1014B00070B504460D46002624E0304613490968FD
:1014C0008988084412490988884205DD00260F48AA
:1014D0000068C088204484B220460C490968C98845
:1014E00008440C490988884201DD002600242A7836
:1014F00021463046FFF790FF6D1C04480068808845
:10150000304486B228780028D7D170BD3C01002035
:10151000340100203601002000B597B001210802F7
:1015200000F0E6FD01200190042003908006079062
:1015300000200290049005900690089009900820E1
:101540000A9010200B9000200C900E900F9010909D
:101550004FF480501190002012901390149001A825
:101560001590169008A8FFF783FD01210020FFF7D2
:1015700065FD17B000BD70B504460D4600262C2051
:1015800000F004FC00BF03E0284600F003FC761CDA
:10159000A642F9D370BD000008B50121602000F01B
:1015A000C7FD03208DF8020018208DF803004FF4CA
:1015B0008040ADF8000069465B48FFF7CCFD4FF472
:1015C0000040ADF8000069465748FFF7C4FD012010
:1015D000ADF8000069465448FFF7BDFD0220ADF8A4
:1015E000000069465048FFF7B6FD8020ADF80000C6
:1015F00069464E48FFF7AFFD4FF48070ADF800002C
:1016000069464A48FFF7A7FD4FF40070ADF80000A7
:1016100069464648FFF79FFD4FF48060ADF8000033
:1016200069464248FFF797FD4FF40060ADF80000AF
:1016300069463E48FFF78FFD4FF48050ADF800003B
:1016400069463A48FFF787FD4FF40050ADF80000B7
:1016500069463648FFF77FFD4FF48040ADF8000043
:1016600069463248FFF777FD4FF40040ADF80000BF
:1016700069462E48FFF76FFD4FF48070ADF800000B
:1016800069462948FFF767FD4FF40070ADF8000088
:1016900069462548FFF75FFD4FF48060ADF8000014
:1016A00069462148FFF757FD03208DF802001820F6
:1016B0008DF803001020ADF8000069461A48FFF7C6
:1016C0004AFD2020ADF8000069461748FFF743FDAA
:1016D0008020ADF8000069461348FFF73CFD4FF449
:1016E0000060ADF8000069460F48FFF734FD102098
:1016F0008DF8030003208DF802000220ADF80000F1
:1017000069460A48FFF727FD10208DF803000320E3
:101710008DF802004FF48050ADF800006946024891
:10172000FFF719FD08BD000000140140001801403A
:1017300010B50446072C00DD10BD3148047020466A
:1017400004EBD0714910A4EB410139B9F0202D49C7
:1017500008804FF4A0702C49088006E04FF4A07078
:1017600028490880F02028490880362000F00EFB28
:101770002648008849F24131884205D1082141EAD2
:10178000441000F007FB0AE02048008848F252515C
:10179000884204D1002141EA441000F0FBFA2A20DB
:1017A00000F0F4FA002000F0F5FA002000F0F2FA60
:1017B00014490988491EC1F3072000F0EBFA1149CA
:1017C0000978491EC8B200F0E5FA2B2000F0DEFAD5
:1017D000002000F0DFFA002000F0DCFA0A49098856
:1017E000491EC1F3072000F0D5FA07490978491EC0
:1017F000C8B200F0CFFA2C2000F0C8FA00BF9BE777
:101800003801002034010020360100203A01002078
:1018100010B5FFF7C1FEFFF77FFE0120FFF7CAFDFD
:1018200000F0A0FA00F038F802480078FFF780FFD7
:1018300010BD0000380100202DE9F04104460D469E
:1018400016461F462A2000F0A1FA201200F0A2FA44
:10185000E0B200F09FFAA119491EC1F30F2000F079
:1018600099FAA119491EC8B200F094FA2B2000F091
:101870008DFA281200F08EFAE8B200F08BFAE9191E
:10188000491EC1F30F2000F085FAE919491EC8B2BC
:1018900000F080FABDE8F08110B500F025FAFE49AD
:1018A00008800846008849F2413188427ED1CF2025
:1018B00000F06CFA002000F06DFA812000F06AFA66
:1018C000302000F067FAED2000F060FA642000F0AC
:1018D00061FA032000F05EFA122000F05BFA81202A
:1018E00000F058FAE82000F051FA852000F052FA92
:1018F000102000F04FFA782000F04CFACB2000F0D6
:1019000045FA392000F046FA2C2000F043FA002076
:1019100000F040FA342000F03DFA022000F03AFADC
:10192000F72000F033FA202000F034FAEA2000F02B
:101930002DFA002000F02EFA002000F02BFAB12042
:1019400000F024FA002000F025FA1B2000F022FA13
:10195000B62000F01BFA0A2000F01CFAA22000F0CA
:1019600019FAC02000F012FA352000F013FAC12055
:1019700000F00CFA112000F00DFAC52000F006FA74
:10198000452000F007FA452000F004FAC72000F0D7
:10199000FDF9A22000F0FEF9F22000F0F7F9002096
:1019A00000F0F8F9262000F0F1F900E096E00120BF
:1019B00000F0F0F9E02000F0E9F90F2000F0EAF97A
:1019C000262000F0E7F9242000F0E4F90B2000F0D5
:1019D000E1F90E2000F0DEF9092000F0DBF95420D7
:1019E00000F0D8F9A82000F0D5F9462000F0D2F98F
:1019F0000C2000F0CFF9172000F0CCF9092000F0FE
:101A0000C9F90F2000F0C6F9072000F0C3F9002043
:101A100000F0C0F9E12000F0B9F9002000F0BAF9B7
:101A2000192000F0B7F91B2000F0B4F9042000F0F1
:101A3000B1F9102000F0AEF9072000F0ABF92A2030
:101A400000F0A8F9472000F0A5F9392000F0A2F92C
:101A5000032000F09FF9062000F09CF9062000F01A
:101A600099F9302000F096F9382000F093F90F2012
:101A700000F090F9362000F089F9C82000F08AF9CA
:101A80002A2000F083F9002000F084F9002000F003
:101A900081F9002000F07EF9EF2000F07BF92B2087
:101AA00000F074F9002000F075F9002000F072F9E0
:101AB000012000F06FF93F2000F06CF93A2000F0AF
:101AC00065F9552000F066F9112000F05FF97348C0
:101AD000FFF798FC292000F059F901E16E480088D1
:101AE00048F252518842F8D1CF2000F04FF900203F
:101AF00000F050F9C12000F04DF9302000F04AF913
:101B0000ED2000F043F9642000F044F9032000F0D8
:101B100041F9122000F03EF9812000F03BF9E82065
:101B200000F034F9852000F035F9102000F032F98A
:101B3000782000F02FF9CB2000F028F9392000F0B0
:101B400029F92C2000F026F9002000F023F9342098
:101B500000F020F9022000F01DF9F72000F016F93E
:101B6000202000F017F9EA2000F010F9002000F022
:101B700011F9002000F00EF9C02000F007F9212033
:101B800000F008F9C12000F001F9112000F002F97D
:101B9000C52000F0FBF82D2000F0FCF8332000F009
:101BA000F9F8362000F0F2F8002000F0F3F83A20BF
:101BB00000F0ECF8552000F0EDF8B12000F0E6F868
:101BC000002000F0E7F8172000F0E4F8B62000F05D
:101BD000DDF80A2000F0DEF8A22000F0DBF8F620A5
:101BE00000F0D4F8012000F0D5F8302000F0D2F851
:101BF000F22000F0CBF8002000F0CCF8262000F016
:101C0000C5F8012000F0C6F8E02000F0BFF8D020B1
:101C100000F0C0F8002000F0BDF8022000F0BAF893
:101C2000072000F0B7F80B2000F0B4F81A2000F0FD
:101C3000B1F8312000F0AEF8542000F0ABF84020AD
:101C400000F0A8F8292000F0A5F8122000F0A2F872
:101C5000122000F09FF8122000F09CF8172000F0EE
:101C600099F8E12000F092F8D02000F093F80020DD
:101C700000F090F8022000F08DF8072000F08AF8BC
:101C8000052000F087F8252000F084F82D2000F0D2
:101C900081F8442004E000003A010020FCBF02006B
:101CA00000F078F8452000F075F81C2000F072F87C
:101CB000182000F06FF8162000F06CF81C2000F0DF
:101CC00069F81D2000F066F8112000F05FF8054863
:101CD000FFF798FB292000F059F82C2000F056F867
:101CE00010BD0000FCBF020010B50024042000F06D
:101CF0004DF800BF1748008800BF1648008800F064
:101D00002BF804464FF6FF7000EA042400F024F894
:101D1000044348F25250844201D1204610BDD320E2
:101D200000F034F800BF0B48008800BF0948008865
:101D300000F012F804464FF6FF7000EA042400F0A9
:101D40000BF8044349F24130844201D12046E5E7D3
:101D50000020E3E7000002600148008870470000AF
:101D60000000026010B502210748FFF7D0FA40F6E4
:101D7000FF20FFF747FB02210348FFF7CAFA40F6AE
:101D8000FF20FFF73FFB10BD001801404FF0C0419E
:101D90000880704701490880704700000000026019
:101DA00008B50121142000F0C3F90120ADF80000AE
:101DB00004208DF8030069460748FFF7CCF94FF47B
:101DC0000050ADF8000004208DF803006946034878
:101DD000FFF7C1F908BD00000008014000100140F4
:101DE00070B504460D4629462046FFF787FA0128BC
:101DF00008D100BF29462046FFF780FA0128F9D014
:101E0000012070BD0020FCE770B5044600F00CF81E
:101E1000C5882B460348028821460020FFF7DCFADC
:101E200070BD0000340100200148006870470000C8
:101E30003C0100200149088070470000400100205B
:101E40001CB50446062269463B2000F081F89DF847
:101E500001009DF8001040EA012000B220809DF8AA
:101E600003009DF8021040EA012000B260809DF856
:101E700005009DF8041040EA012000B2A0801CBDBE
:101E80001CB5044606226946432000F061F89DF81F
:101E900001009DF8001040EA012000B220809DF86A
:101EA00003009DF8021040EA012000B260809DF816
:101EB00005009DF8041040EA012000B2A0801CBD7E
:101EC00008B50020009001226946752000F040F816
:101ED0009DF80000682804D0054801F02BF8002088
:101EE00008BD9DF8001003A001F024F80120F7E7D9
:101EF0008C7F00084D505536303530204944203D08
:101F00002025640D0A00000070B50024002500BFE4
:101F100006E0002500E06D1CB5F57A7FFBDB641C54
:101F2000B4F57A7FF5DB00216B2000F067F807211C
:101F3000192000F063F806211A2000F05FF8002154
:101F40001C2000F05BF818211B2000F057F870BD32
:101F50002DE9F04107460C46154601F03DFDD02025
:101F600001F010FD01F060FD384601F00BFD01F0BD
:101F70005BFD01F031FDD12001F004FD01F054FDC5
:101F8000002606E0012001F0D5FC2070641C701CC6
:101F9000C6B2681EB042F5DC002001F0CBFC207018
:101FA00001F032FDBDE8F0812DE9F84F82460222B2
:101FB00069464120FFF7CCFF9DF801009DF8001015
:101FC00040EA01200FFA80FB5846FEF7ABFA804644
:101FD0000022074BFEF737FA0646064A064BFEF785
:101FE0008BF90446FEF7C2FACAF80000BDE8F88F84
:101FF00000407540A4703D0AD743424070B5054685
:102000000C4601F0E9FCD02001F0BCFC01F00CFD15
:10201000284601F0B7FC01F007FD204601F0B2FCB4
:1020200001F002FD01F0F0FC70BD00BFFEE770475B
:1020300008B54FF4C06000F049F81D208DF800008D
:1020400000208DF8010002208DF8020001208DF89B
:102050000300684600F002F808BD000070B50021DA
:1020600000230F22C47804B3154C246804F4E06400
:10207000C4F5E064210AC1F10403CA40447804FABB
:1020800003F184781440214309010E4C0678A155D0
:10209000047804F01F050124AC4005786D11AD00F3
:1020A00005F1E025C5F8004109E0047804F01F05BA
:1020B0000124AC40044D0678761145F8264070BDE9
:1020C0000CED00E000E400E080E100E002490143A3
:1020D000024A1160704700000000FA050CED00E0B4
:1020E000014908627047000000000E42704700007E
:1020F00029B1064A52690243044B5A6104E0034A7B
:1021000052698243014B5A6170470000001002403F
:1021100029B1064AD2690243044BDA6104E0034A5A
:10212000D2698243014BDA6170470000001002401F
:1021300029B1064A92690243044B9A6104E0034ABA
:1021400092698243014B9A6170470000001002407F
:102150000149086070470000400442420348406A59
:1021600040F0807001494862704700000010024052
:1021700030B500210022002400232D4D6D6805F0AC
:102180000C0121B1042905D0082923D105E0294DEE
:10219000056022E0274D05601FE0254D6D6805F4C0
:1021A0007012234D6D6805F48034022505EB9242D0
:1021B0001CB9214D554305600BE01D4D6D6805F4BC
:1021C00000351DB11C4D5543056002E0194D5543C6
:1021D000056002E0174D056000BF00BF144D6D683B
:1021E00005F0F0010909154D6B5C0568DD4045609F
:1021F0000F4D6D6805F4E061090A104D6B5C456890
:10220000DD4085600A4D6D6805F46051C90A0B4DCB
:102210006B5C4568DD40C560054D6D6805F4404167
:10222000890B074D6B5CC568B5FBF3F5056130BDE7
:102230000010024000127A0000093D00000000205A
:102240001000002010B501460022002300204A1192
:10225000012A02D1094C236806E0022A02D1074C68
:10226000236A01E0054C636A01F01F0201249440D7
:102270001C400CB1012000E0002010BD0010024005
:10228000014908607047000080044242014908602B
:10229000704700003C0442420249096A0143014A76
:1022A000116270470010024010B504460420FEF78A
:1022B0005FFD4AF2A55188420ED01BA000F03AFE05
:1022C00021A000F037FE204600F084FB4AF2A55121
:1022D0000420FEF75BFD23E001214FF0C050FFF723
:1022E00017FF0120FFF7FCFE0120FFF7C9FF00BF29
:1022F0006120FFF7A7FF0028FAD07B20FFF7A2FF9D
:1023000018B117A000F016FE02E07A20FFF79AFF3E
:1023100000F0FAF80121084600F0A8F800F0EAF809
:10232000FFF71CFF10BD00000D0A0D0A2052544398
:10233000206E6F742079657420636F6E66696775AF
:102340007265642E2E2E2E000D0A0D0A2052544363
:1023500020636F6E666967757265642E2E2E2E007F
:102360000D0A0D0A20506F776572204F6E2052655E
:10237000736574206F636375727265642E2E2E2EE2
:1023800000000000024909888143014A118070471A
:102390000428004010B501214FF0C050FFF7B8FEEF
:1023A0000120FFF79DFEFEF7DAFC0120FFF768FF32
:1023B00000BF6120FFF746FF0028FAD04FF40070FD
:1023C000FFF76AFF0120FFF761FF00F09DF800F0C2
:1023D00091F80121084600F049F800F08BF849F621
:1023E0003F4000F077F800F085F810BD0348008802
:1023F00040F01000014908807047000004280040A8
:10240000034800884FF6EF71084001490880704783
:1024100004280040002103480188001F008841EA89
:10242000004070471C28004001460020064A1288E0
:102430000A40D0B2044A121F12880A4012B108B1F1
:10244000012000E0002070470428004010B5012062
:10245000FFF7EAFF38B10120FFF794FF012002499E
:10246000086000F047F810BD7800002029B1064A46
:1024700012880243044B1A8004E0034A1288824304
:10248000014B1A80704700000028004008B54FF447
:10249000C060FFF71BFE03208DF8000001208DF8BF
:1024A000010000208DF8020001208DF8030068462D
:1024B000FFF7D4FD08BD000000B50246FFF796FF08
:1024C000100C03490880091D0A80FFF799FF00BD21
:1024D0001828004000B50246FFF788FFC2F303400A
:1024E00003490880091D0A80FFF78AFF00BD00002C
:1024F0000828004000BF0348008800F020000028A2
:10250000F9D0704704280040074800884FF6F7715B
:1025100008400549088000BF0348008800F0080013
:102520000028F9D07047000004280040704710B51B
:1025300000F002F810BD00000CB5002001900090E2
:102540003348006840F480303149086000BF3048AB
:10255000006800F4003000900198401C0190009841
:1025600018B90198B0F5A06FF1D12948006800F4BE
:10257000003010B10120009001E000200090009890
:10258000012843D12348006840F010002149086029
:102590000846006820F0030008600846006840F024
:1025A000020008601A4840681949486008464068B7
:1025B00048600846406840F48060486008464068CB
:1025C00020F47C1048600846406840F4E8104860F9
:1025D0000846006840F08070086000BF0C48006842
:1025E00000F000700028F9D00948406820F003008E
:1025F000074948600846406840F00200486000BF54
:102600000348406800F00C000828F9D10CBD000018
:102610000010024000200240042808D14FF0E021C1
:10262000096941F004014FF0E022116107E04FF029
:10263000E021096921F004014FF0E02211617047A7
:1026400000200CE0074951F8201031B1054951F83C
:102650002010491E034A42F82010411CC8B202282B
:10266000F0DB70471400002010B51348006840F0FC
:1026700001001149086008464068104908400E49A9
:102680004860084600680E4908400B490860084643
:10269000006820F4802008600846406820F4FE00AE
:1026A00048604FF41F008860FFF741FF4FF0006063
:1026B0000449086010BD0000001002400000FFF84F
:1026C000FFFFF6FE08ED00E010B50121164800F00E
:1026D00052F838B315480088401C14490880144843
:1026E0001449098830F811000F49383108800F4823
:1026F000008811490988884210DD0E480088401C76
:102700000C490880084600880C490988884202DB89
:10271000002008490880002004490880012102485F
:1027200000F01AF810BD0000000400401E00002058
:102730004A0100201C000020480100202602002041
:1027400021B1028842F08002028004E002884FF644
:102750007F731A4002807047CA430282704721B1DA
:10276000028842F00102028004E002884FF6FE7304
:102770001A400280704730B5024600200023002432
:10278000158A05EA0103958905EA010413B10CB124
:10279000012000E0002030BD1AB183890B43838102
:1027A00002E083898B4383817047000070B5002469
:1027B00000220023058C4FF6EF7635400584028C0D
:1027C0008388048B48F6FF752C404FF6FF452C405C
:1027D0000D884FF6FF7606EA05252C434FF6DF7588
:1027E0002A400D8906EA05152A434D8806EA051593
:1027F0002A43154DA84202D0144DA8421DD14FF6D0
:102800007F752A404D894FF6FF7606EA05152A4363
:102810004FF6BF752A408D8806EA05152A434FF604
:10282000FF352B404FF2FF752B408D8906EA850559
:102830002B43CD8906EA85052B4383800483CD880D
:102840000587028470BD0000002C01400034014067
:102850000A460021018B4FF2FF7319404FF6FF73B8
:1028600003EA022319430183704700000022028813
:102870001D4B98420ED01D4B98420BD0B0F1804FAB
:1028800008D01B4B984205D01A4B984202D01A4BE5
:10289000984204D14FF68F731A404B881A43174B56
:1028A000984207D0164B984204D04FF6FF431A4087
:1028B000CB881A4302808B8883850B8803850A4B5B
:1028C00098420BD0094B984208D00E4B984205D045
:1028D0000D4B984202D00D4B984201D10B7A0386E2
:1028E0000123838270470000002C01400034014026
:1028F0000004004000080040000C004000100040B0
:1029000000140040004001400044014000480140E4
:1029100010B500F003F800F021F810BD08B5012152
:102920000920FFF705FC01210920FFF701FC012127
:102930000848FEF79BFC2020ADF8000018208DF819
:10294000030003208DF8020069460348FEF703FCEC
:1029500008BD000000081A00000C014000B587B057
:1029600001210220FFF7D4FB4FF48060ADF8140082
:102970000020ADF81000ADF81600ADF8120004A963
:102980001348FFF773FF6020ADF800000120ADF899
:1029900002000020ADF806000220ADF808006946EC
:1029A0000B48FFF703FF08210948FFF751FF0121FA
:1029B0000748FFF7C5FE01210548FFF7D0FE0122B9
:1029C00011460348FFF7E8FEFFF732FB07B000BDF2
:1029D0000004004070B50446FFF7DCFCFFF78AFDF9
:1029E0002046FEF799FC204601F044FCA0F5E145A5
:1029F0002846FFF761FDFFF77DFD70BDF0B585B09E
:102A000005460C4605F5E1462146304601F070FCCE
:102A10006069C01E0C2190FBF1F201FB12000D4910
:102A200051F82070DFF830C0A3695CF8233094E8D7
:102A30000700CDE90132CDE90310E06800903A4685
:102A400006A0D4E9043100F075FA12A000F072FA81
:102A500005B0F0BD980000207C0000202564C4EA89
:102A6000282573C4EA29202564D4C2202564C8D54A
:102A7000200D0A20D0C7C6DA25730D0A2025302E76
:102A800032643A25302E32643A25302E32640D0AF3
:102A9000000000002D2D2D2D2D2D2D2D2D2D2D2D1A
:102AA0002D2D2D2D2D2D2D2D2D2D2D2D2D2D2D2D56
:102AB0002D2D2D2D2D2D2D2D2D2D2D2D2D2D2D2D46
:102AC0002D0A000038B504460020009000256EA0B5
:102AD00000F030FA00BF7A4800F02CFA694679A07D
:102AE000FDF754FB40F2B2710098884204D340F2E3
:102AF000F6710098884204D973A0009900F01AFA80
:102B000006E07AA0009900F015FA0098606100E0F4
:102B1000E1E700BF00BF7B4800F00CFA694669A0FE
:102B2000FDF734FB009810B100980C2804D966A07A
:102B3000009900F0FFF906E073A0009900F0FAF99F
:102B40000098206100E0E6E700BF20690D2832D23E
:102B5000DFE800F0310714080F09100A0B110C12FE
:102B60000D0000BF00BF00BF00BF00BF00BF1F259A
:102B700021E000BF00BF00BF1E251CE06069C11737
:102B800000EB91718910A0EB810191B96422616918
:102B900091FBF2F302FB131131B99200616991FBD1
:102BA000F2F302FB131121B92169022901DD1D2570
:102BB00000E01C2500BF00BF00BF2946584800F0B8
:102BC000B9F969463FA0FDF7E1FA009810B1009805
:102BD000A84204D93CA0009900F0ACF906E051A04D
:102BE000009900F0A7F90098E06000E0E5E700BF79
:102BF00000BF524800F09EF9694632A0FDF7C6FAC0
:102C00000098172804D930A0009900F093F906E045
:102C10004BA0009900F08EF90098A06000E0E8E772
:102C200000BF00BF4C4800F085F9694625A0FDF7BC
:102C3000ADFA00983B2804D923A0009900F07AF956
:102C400006E046A0009900F075F90098606000E089
:102C5000E8E700BF00BF474800F06CF9694619A0DB
:102C6000FDF794FA00983B2804D917A0009900F0CA
:102C700061F906E040A0009900F05CF9009820603E
:102C800000E0E8E700BF38BD0D0A3D3D3D3D3D3D5C
:102C90003D3D3D3D3D3D3D3D3D3D3D3D3D3D3D3D64
:102CA0003D3D3DC9E8D6C3CAB1BCE43D3D3D3D3DD7
:102CB0003D3D3D3D3D3D3D3D3D3D3D3D3D000000FB
:102CC0005C800008256400000D0A20C4FACAE4C82C
:102CD000EBB5C4CAFDD7D6CAC73A2564A3ACB2BB0C
:102CE000B7FBBACFD2AAC7F3000000000A0D20201C
:102CF000C4EAB7DDB1BBC9E8D6C3CEAA3A20256481
:102D00000A0D0000D47F00080A0D2020D4C2B7DDD0
:102D1000B1BBC9E8D6C3CEAA3A2025640A0D00008B
:102D20002C8100080A0D2020C8D5C6DAB1BBC9E83D
:102D3000D6C3CEAA3A2025640A0D000018800008E8
:102D40000A0D2020CAB1D6D3B1BBC9E8D6C3CEAADA
:102D50003A2025640A0D0000E88000080A0D2020B2
:102D6000B7D6D6D3B1BBC9E8D6C3CEAA3A2025641C
:102D70000A0D0000A48000080A0D2020C3EBD6D362
:102D8000B1BBC9E8D6C3CEAA3A2025640A0D00001B
:102D900021B1828942F40052828104E082894DF699
:102DA000FF731A408281704700B585B0012104206D
:102DB000FFF7BEF901218803FFF7BAF94FF400705D
:102DC000ADF8100018208DF8130003208DF81200C4
:102DD00004A91348FEF7BFF94FF48060ADF8100066
:102DE00004208DF8130004A90D48FEF7B4F94FF440
:102DF000E13000900020ADF80400ADF80600ADF819
:102E00000800ADF80C000C20ADF80A006946054832
:102E100000F018F801210348FFF7BAFF05B000BD24
:102E2000000801400038014002460020B1F5007F53
:102E300000D100BF13880B400BB1012000E000203F
:102E4000704700002DE9F04786B005460E46002485
:102E5000A24600BFA1460027B08900B100BF2F469F
:102E60002C8A4CF6FF700440F08804432C82AC8915
:102E70004EF6F3100440B088318908437189084345
:102E80000443AC81AC8A4FF6FF400440B089044350
:102E9000AC8201A8FFF76CF91F48874202D1DDF828
:102EA00010A001E0DDF80CA0A88900F4004040B1BA
:102EB0000AEBCA0000EB0A1031684900B0FBF1F8D8
:102EC00007E00AEBCA0000EB0A1031688900B0FB8A
:102ED000F1F86420B8FBF0F004012009642101FB43
:102EE0001089A88900F4004040B1322000EBC900ED
:102EF000B0FBF1F000F00700044308E0322000EBE3
:102F000009106421B0FBF1F000F00F0004432C81A4
:102F100006B0BDE8F087000000380140014688880F
:102F2000C0F308007047C1F308028280704700BFF9
:102F3000FEE700000FB4054B10B503A9044A029840
:102F400000F0EEF810BC5DF814FB000079380008C2
:102F50002C0200200FB4084B10B504A902AA039854
:102F600000F0DEF8044602A9002000F070FC2046C4
:102F700010BC5DF814FB00004F38000802E008C8E0
:102F8000121F08C1002AFAD170477047002001E0E3
:102F900001C1121F002AFBD1704700002DE9FF5F1D
:102FA00082B00021DDE90430020DDDF840B00343BA
:102FB00018D044F61050A2F2FF3242431514119873
:102FC00001281FD0A5EB0B00401C5FEA000A4FF060
:102FD00000064E4FDFF83891B046504615D5CAF17D
:102FE000000413E0119801244AA3012801D16FEADB
:102FF0000B010298119AC0E90031C0E9024206B003
:10300000BDE8F09FCBF10000DFE704460021404A15
:10301000491842EB0450CDE9001012E0E00707D058
:1030200032463B4640464946FDF7D0FB804689463E
:1030300032463B4610461946FDF7C8FB06460F468A
:103040006410002CEAD1DDE90401DDE90023BAF1C6
:10305000000F06DAFDF7BAFB42464B46FDF7B6FB1A
:1030600005E0FDF7F0F942464B46FDF7ECF9044662
:103070000E460022284BFDF733FC03D84FF0FF30FB
:10308000014607E00022254B20463146FDF734F982
:10309000FDF70EFC102409E0002C0ADB0A220023B5
:1030A000FDF796FA039B30321A55641E50EA01026E
:1030B000F2D1641C039AC4F111031444119A012A39
:1030C00003D0012208430DD10AE0084304D00020B8
:1030D0004FF0110B119072E7A3EB0B056D1E0DE085
:1030E0005B4504DD4FF0000205F1010504E003DA61
:1030F0004FF00002A5F10105002AECD002981199C9
:10310000C0E90231C0E9004579E700000000144041
:103110000000F03F300000000000F0430000E03FFE
:103120002DE9FF4F95B09B468946064600250FE2E4
:10313000252877D100242746F84A0121059400E08C
:10314000044316F8013F203B01FA03F01042F7D187
:1031500030782A2811D06FF02F033078A0F1300298
:10316000092A16D8059A44F0020402EB820203EB06
:1031700042021044761C0590EFE759F8042B0592A3
:10318000002A03DA504244F40054059044F002044B
:10319000761C30782E2816D116F8010F44F004045E
:1031A0002A280DD06FF02F023078A0F13003092BC0
:1031B00009D807EB870302EB4303C718761CF3E734
:1031C00059F8047B761C30786C280FD006DC4C282C
:1031D00017D068280DD06A2814D104E0742810D0C4
:1031E0007A280FD10DE044F400140AE044F480146E
:1031F00001E044F440147278824202D104F5801454
:10320000761C761C307866280BD013DC582877D0D3
:1032100009DC002875D04528F6D04628F4D0472888
:103220001AD19DE118E0632835D0642879D065284B
:1032300012D195E1702873D008DC6728F1D0692895
:103240006FD06E280DD06F2806D1B5E073282CD032
:10325000752875D0782874D05A46179990476D1CF8
:1032600075E1C4F30250022809D003280DD0D9F823
:10327000001004280DD00D6009F1040967E1D9F8A8
:103280000010EA17C1E90052F6E7D9F800100D80E6
:10329000F2E70D70F0E719F8041B8DF8001000201C
:1032A0008DF80100EA46012003E059F804AB4FF025
:1032B000FF3061074FF0000102D40DE008F1010179
:1032C0008846B9420FDA8045F8DB1AF80810002961
:1032D000F4D108E008F1010188468142FADB1AF8CE
:1032E00008100029F6D105985B46A0EB0807214697
:1032F0003846179A00F094FA284400EB080507E0D6
:103300004DE029E10DE01AF8010B5A461799904754
:10331000B8F10108F7D25B4621463846179A13E107
:1033200042E00A220092C4F302524FF0000A022A3D
:1033300008D059F804CB032A4FEAEC710AD00DE00B
:1033400029E02AE009F1070121F00702F2E802C1B1
:10335000914609E00FFA8CFC4FEAEC71042A03D184
:103360004FFA8CFC4FEAEC71002907DA0A4600217B
:10337000DCF1000C61EB02012D2202E0220504D5F4
:103380002B228DF80420012203E0E20701D0202245
:10339000F7E7904659E00A2102E010220DE01021E3
:1033A0004FF0000A00910BE010224FF0000A44F0A9
:1033B00004040827009203E008224FF0000A00925C
:1033C000C4F30252022A05D059F804CB0021032A83
:1033D00008D009E009F1070121F00702F2E802C173
:1033E000914605E01FFA8CFC042A01D10CF0FF0C79
:1033F0004FF00008220728D5702806D0009B83F0E4
:10340000100353EA0A0305D00EE040228DF8042091
:10341000012208E05CEA010206D030228DF8042087
:103420008DF8050002229046009B83F0080353EAC2
:103430000A030AD15CEA010201D1620705D53022F4
:103440008DF804204FF001087F1E582804D034A0C6
:1034500003900EA802900DE036A0F9E753466046AF
:10346000009AFDF7B5F884460398825C0298401EE6
:10347000029002705CEA0100F0D1029806A9081AD5
:1034800000F1200A600702D524F4803400E001270F
:10349000574502DDA7EB0A0000E0002000EB0A011F
:1034A000009005984144401A0590E00306D45B461D
:1034B0002146179A059800F0B3F90544002706E065
:1034C00001A85A46C05D179990476D1C7F1C47455F
:1034D000F6DBE0030CD55B462146179A059800F011
:1034E0009FF9054404E030205A46179990476D1C17
:1034F0000099481E00900029F5DC08E00298029926
:103500005A460078491C0291179990476D1CBAF1F0
:103510000001AAF1010AF1DC65E1000009280100BF
:103520003031323334353637383961626364656639
:1035300000000000303132333435363738394142FB
:10354000434445460000000000F058F90544761C4D
:10355000307800287FF4ECAD19B02846BDE8F08F34
:10356000620700D4062709F1070222F0070CFCE8E5
:103570000223E14603F000485FEA080C02D00FF294
:10358000702C0DE05FEA045C02D50FF2682C07E0B6
:103590005FEAC47C02D00FF2602C01E0AFF2700C45
:1035A0004FF0FF3823F00043CDF850C065280CD011
:1035B00006DC452809D046281DD047283DD13DE0EE
:1035C000662818D067287ED138E00021112F01DB52
:1035D000112000E0781CCDE9000106A90EA8FFF734
:1035E000DDFCDDE90F010E9A03910021009207F145
:1035F000010A04914DE04FF000400097CDE9011021
:1036000006A90EA8FFF7CAFCDDE90F0203920E9B84
:1036100011990022DDF80CA00093049211B9791CD5
:1036200000EB010AB7EB0A0004D4C0F1FF3007F148
:10363000010A0490AAEB0700019044E0012F00DA90
:1036400001270021112F01DD112000E03846CDE9CE
:10365000000106A90EA8FFF7A1FCDDE90F010E9AF3
:103660000391002104910092BA4621070CD40399DA
:10367000514500DA8A46BAF1010F05DD009AAAF138
:103680000101515C302908D0B84202DA10F1040F70
:1036900006DA0121CDE9011015E0AAF10101E9E7FF
:1036A000002805DC049901440491AAEB000102E022
:1036B000411C514500DD8A460499401A401C019086
:1036C0004FF000400290200704D40198504501DBE0
:1036D000CDF8048000208DF84F0002980DF14F07BF
:1036E000B0F1004F25D02B200E9002984FF0020829
:1036F00000280CDA404202902D200E9007E00A21AB
:103700000298FCF74FFF3031029007F8011DB8F125
:103710000001A8F10108F2DC02980028EFD1791E1F
:103720000E980870307800F0200040F0450007F84F
:10373000020D12A8C01B00F107081498007800B110
:10374000012000EB0A01019801EBE071059841446A
:10375000401A401E0590E00306D45B462146179AA6
:10376000059800F05DF805441498007818B15A46A1
:10377000179990476D1CE00324D55B462146179AA4
:10378000059800F04DF805441CE00498002807DB7C
:10379000DDE90301884203DD0098405C179901E0F0
:1037A000179930205A469047049805F10105401CAE
:1037B00004900198401E019004D12E205A4617997A
:1037C00090476D1CBAF10001AAF1010ADDDC05E0A9
:1037D00017F8010B5A46179990476D1CB8F1000174
:1037E000A8F10108F4DC5B462146179A0598ABE680
:1037F0002D0000002B000000200000002DE9F0410A
:10380000044600251E461746880404D405E03946C0
:103810002020B0476D1C641EF9D52846BDE8F08114
:103820002DE9F041044600251E469046C80301D507
:10383000302700E02027880404D505E041463846BB
:10384000B0476D1C641EF9D52846BDE8F0810A68B2
:10385000531C0B601070704710B5044600BF202148
:103860000448FFF7E1FA0028F9D00248FFF756FBB9
:1038700010BD00000038014070B504460D46E1B2AD
:103880000548FFF750FB00BF80210348FFF7CCFA43
:103890000028F9D0204670BD0038014010B58020C6
:1038A0000949086000F012F840200749091F086024
:1038B00000F00CF840200449086000F007F8802070
:1038C0000149091F086010BD140C0140002001E0EF
:1038D000411CC8B20A28FBDB7047000008B5012173
:1038E0000820FEF725FCC020ADF8000003208DF86D
:1038F000020014208DF8030069460348FDF72BFCF5
:1039000000F082F808BD0000000C014010B58020D6
:1039100007490860FFF7DAFF402005490860FFF714
:10392000D5FF40200249091D0860FFF7CFFF10BDF9
:10393000100C014070B505460024002616E0600614
:10394000040E40200E490860FFF7C0FF0C480838FD
:10395000006800F0800008B1601CC4B24020084933
:10396000091D0860FFF7B2FF701CC6B2082EE6DB27
:1039700015B9FFF7CBFF01E0FFF790FF204670BDC0
:10398000100C014070B50446002520E004F08000D2
:1039900018B180200F49086003E080200D49091DFF
:1039A0000860FFF793FF40200A490860FFF78EFF89
:1039B00040200849091D0860072D02D18020091FF9
:1039C00008606006040EFFF781FF681CC5B2082D71
:1039D000DCDB70BD100C014010B580200949086087
:1039E00040200860FFF772FF80200649091D08602B
:1039F000FFF76CFF40200349091D0860FFF766FFD1
:103A000010BD0000100C014010B580200549086071
:103A10004020091F0860FFF759FF80200149091F56
:103A2000086010BD140C014010B580200C490860DE
:103A3000FFF74CFF40200A490860FFF747FF08489E
:103A40000838006800F0800008B1012400E000247C
:103A500040200349091D0860FFF738FF204610BDCC
:103A6000100C0140ACB000BF002400250026A14688
:103A700000200890FEF7F8FD4FF4A060FEF726FB4B
:103A8000FFF792F94820FDF77FFAFDF7C1FE4FF0EE
:103A9000E020006940F001004FF0E0210861FEF7EE
:103AA0007FF9FEF7F3FCFC48FEF7FEFBFFF716FF7D
:103AB000FEF72AFAFDF778F90620FDF739FEF748F8
:103AC0000388F748028800210846FDF785FCFDF7CA
:103AD000BBF9FEF71DFF54E30898012859D10020D7
:103AE000089054E0EF480068012808D1FEF792FCE6
:103AF0000746E949FEF782FF0020EA4908600121F4
:103B0000E948FEF76DF901280BD101A8FEF7DAFFAD
:103B100001A8FEF75FFF4AF2A5510420FDF736F930
:103B200000BFE249E248FDF7E0F9FEF77DF9C788FA
:103B3000E0A13846FDF7BCFCD74800680090D648A5
:103B40004368E1A1826809A8FFF704FAFEF76CF95F
:103B5000C0884004070C3846FEF756F9FEF764F9B2
:103B6000C0884004070C09A93846FDF7A1FC4FF4B2
:103B70000051DD48FEF734F9012808D1C748038811
:103B8000C748028800210846FDF726FC00E0A9E7A7
:103B900000BF089802287DD10020089099E0C34911
:103BA000C348FDF7A2F9C1480278C1480178CFA007
:103BB000FFF7C0F9D5480268D5480168D5A0FFF7DE
:103BC000B9F9DCA0FFF7B6F9B9480078D04909681F
:103BD000884208D2B5480078CC490968884202D2A8
:103BE000E0A0FFF7A7F9B2480078C9490968884200
:103BF00009D34820DF4908808915AB48FDF789FBC8
:103C0000DDA0FFF797F9A9480078C0490968884204
:103C100009D34820D74908808915A348FDF779FBC7
:103C2000D9A0FFF787F901219F48FEF7D9F80128AD
:103C300019D1DAA0FFF77EF9DEA0FFF77BF9B449CE
:103C4000E0A0FCF7A3FAE0A0FFF774F9D9A0FFF712
:103C500071F9AE49DBA0FCF799FAE1A0FFF76AF928
:103C6000B4A0FFF767F94FF4FA70FDF7ABF9FEF770
:103C7000DBF8C788DEA13846FDF71AFC8B480378CD
:103C80008B480278DFA122A8FFF764F9FEF7CCF891
:103C9000C08800E01FE04004070C3846FEF7B4F887
:103CA000FEF7C2F8C0884004070C22A93846FDF789
:103CB000FFFB4FF400518C48FEF792F8012808D121
:103CC000764803887648028800210846FDF784FB81
:103CD00000E064E700BF089803287DD10020089029
:103CE0000024FEF7EDF80128F7D1EEE12AA8FEF74F
:103CF000A7F8BDF9AC30BDF9AA20BDF9A810C7A03E
:103D0000FFF718F928A8FEF7BBF8BDF9A430BDF9F4
:103D1000A220BDF9A010C8A0FFF70CF927A8FEF754
:103D200043F92798FCF70FFC07463A460B46C8A014
:103D3000FFF700F97FA0FFF7FDF84FF4FA70FDF7E9
:103D400041F94FF4FA70FDF73DF901215648FEF7AD
:103D500047F8012808D12146C1A0FFF7EBF84FF43E
:103D60007A70FDF72FF9B0E1BDF9A000401B0028E3
:103D70000BDDBDF9A200801B002806DDBDF9A40003
:103D8000A0EB0900002800DD641CBDF9A050BDF9BE
:103D9000A260BDF9A4902246B7A10EA8FFF7DAF8F9
:103DA000FEF742F8C0888004070C3846FEF72CF86E
:103DB000FEF73AF8C0888004070C0EA93846FDF7D4
:103DC00077FBFEF731F80027AEA13846FDF770FB10
:103DD000BDF9AC00009000E079E1BDF9AA30BDF971
:103DE000A820AEA11DA8FFF7B5F8FEF71DF8C788FB
:103DF0003846FEF709F8FEF717F8C7881DA93846B8
:103E0000FDF756FBBDF9A4000090BDF9A230BDF945
:103E1000A020A6A118A8FFF79DF8FEF705F8C08816
:103E20004004070C3846FDF7EFFFFDF7FDFFC088A3
:103E30004004070C18A93846FDF73AFB2798FCF711
:103E400082FB07463A460B469CA113A8FFF782F86F
:103E5000FDF7EAFFC08800EB400087B23846FDF767
:103E6000D3FFFDF7E1FFC08800EB400087B213A944
:103E70003846FDF71DFB4FF400511B48FDF7B0FF1E
:103E8000012808D105480388054802880021084612
:103E9000FDF7A2FA1AE117E12C00002036010020FC
:103EA000340100207800002000080140210000209B
:103EB0002000002020202020202020202054494DB8
:103EC00045204D4F444500002020202054696D6559
:103ED0003A202020202025302E32643A25302E3200
:103EE000643A25302E32640000100140B5B1C7B0ED
:103EF000CEC2B6C8A3BA256420B5B1C7B0CAAAB6A7
:103F0000C8A3BA2564A15C0D0A00000028000020A7
:103F100024000020CEC2B6C8E3D0D6B52020256448
:103F200020CAAAB6C8E3D0D6B520202564A15C0D6E
:103F30000A0000002D2D2D2D2D2D2D2D2D2D2D2D5B
:103F40002D2D2D2D2D2D2D2D2D2D2D2D2D2D2D2DA1
:103F50002D2D2D2D2D2D2D2D2D2D2D2D2D2D2D2D91
:103F60002D0A00004448543131D5FDB3A3D4CBD041
:103F7000D000000028040040BBB7BEB3CEC2B6C814
:103F8000B9FDB8DF20200000BBB7BEB3CAAAB6C8CF
:103F9000B9FDB8DF20200A2020000000D0DEB8C420
:103FA000B5B1C7B0CEC2B6C8E3D0D6B52020200A7E
:103FB000000000000DC7EBCAE4C8EBD0DEB8C4D6E1
:103FC000B50A000025640000D0DEB8C4B5B1C7B0A2
:103FD000CAAAB6C8E3D0D6B52020200A0000000047
:103FE000D0DEB8C4B3C9B9A62121210A000000005F
:103FF0002020202020202020204448543131204DF2
:104000004F44450074656D703A25366420202020A9
:104010002068756D693A2536640000000D0ABCD32E
:10402000CBD9B6C8A3BA20253864253864253864AE
:10403000202020200A000000CDD3C2DDD2C7A3BAC1
:1040400020253864253864253864202020200A0083
:10405000CEC2B6C8A3BA2025382E32660A000000A8
:10406000202020202020C4FAD2D1BEADD7DFC1CB82
:104070002564B2BD0A000000537465703A253764A8
:10408000000000002020202020202020204D50551E
:1040900036303530204D4F44450000004143433A0F
:1040A0002538642538642538640000004779726F2C
:1040B0003A253764253764253764000054656D70F0
:1040C0003A25372E3266000000BF0FE600BF089881
:1040D000002856D14FF480712A48FDF718F92AA01C
:1040E000FEF728FF33A0FEF725FF37A0FEF722FFDB
:1040F0003AA0FEF71FFFAFF2C410FEF71BFFFDF75B
:1041000093FEC08800EB40004004070C3BA13846FA
:10411000FDF7CEF9FDF788FEC088C0EBC00087B27E
:104120003BA13846FDF7C4F9FDF77EFEC088C00408
:10413000070C3CA13846FDF7BBF9FDF775FEC088BA
:1041400000EBC00087B23DA13846FDF7B1F94FF44E
:104150007840FDF76FFEFDF767FEC08800EB80003A
:1041600087B23EA13846FDF7A3F90020FDF762FEB5
:1041700008A9AFF2B010FCF709F83DA00899FEF7C6
:10418000D9FEA9E400080140CFC2C3E6CAC7D1A145
:10419000D4F1BDE7C3E6A3ACC7EBCAE4C8EBD2AA2F
:1041A000D1A1D4F1B5C4CFD4CABEB5C4C4DAC8DD78
:1041B0000A000000312CCFD4CABEB5B1C7B0B5C417
:1041C000CAB1BCE40A000000322CCFD4CABEB5B1DB
:1041D000C7B0B5C4CEC2CAAAB6C80A00332CCFD461
:1041E000CABEB5B1C7B0B5C4CDD3C2DDD2C7B5C4A0
:1041F000B8F7D6D6CAFDBEDD0A0000002020202078
:1042000020202020312C54494D45204D4F4445005D
:1042100020202020202020322C4448543131204DB1
:104220004F444500202020202020332C4D5055366F
:10423000303530204D4F4445000000002D2D2D2DF0
:104240002D2D2D2D2D2D2D2D2D2D2D2D2D2D2D2D9E
:104250002D2D2D2D2D2D2D2D2D2D0000202020201C
:1042600020202020202020204D4F44450000000029
:1042700025640A0010B501460869801E08610028FF
:1042800005DC08690C3008614869401E48616423F8
:10429000486990FBF3F04A69D31702EB9373C0EBC4
:1042A000A3004FF4C87492FBF4F3034440F26F147C
:1042B000086960430C2490FBF4F01844CB68034475
:1042C00040F26D1402FB0430084BC01A00EB4000B2
:1042D0008B6803EBC000C0EB00104B6803EB800061
:1042E000C0EB00100B6803EB800010BD8BFA0A00D6
:1042F0002DE9F04107460C462E48B7FBF0F6B7FB18
:10430000F0F100FB11784FF4616098FBF0F0A060D1
:104310004FF4616098FBF0F100FB11803C2190FBB1
:10432000F1F060604FF4616098FBF0F100FB1180E8
:104330003C2190FBF1F201FB1200206040F2B275CB
:1043400009E005F0030010B94FF4B77001E040F246
:104350006D10361A6D1C05F0030010B94FF4B770DC
:1043600001E040F26D10B042EBDD65616069C1179C
:1043700000EB91718910A0EB810111B91D200E494C
:104380004860012505E0681E0B4951F82000361AE7
:104390006D1C681E084951F82000B042F3DD1C2056
:1043A00048602561701CE0602046FCF7B5FFBDE861
:1043B000F081000080510100480000200000000052
:1043C0001F0000003B0000005A00000078000000C1
:1043D00097000000B5000000D4000000F3000000CA
:1043E00011010000300100004E010000000000003B
:1043F00000000000000000000000000000000018A5
:1044000018181818180800081800000000000034D8
:104410002424240000000000000000000000000030
:1044200016247F2424247E24240000000000000899
:104430003E6848681C1612127C10100000000061D3
:10444000D296740810162949C6000000000000002A
:104450003C646438724ACE467F00000000000018B9
:104460001818180000000000000000000000000400
:10447000081810303030301010180C0400000020E4
:104480001008080C0404040C081810200000000890
:104490000A341C6A08000000000000000000000050
:1044A00000001818187F18181800000000000000FD
:1044B0000000000000000018180830000000000094
:1044C00000000000003C00000000000000000000B0
:1044D00000000000000000181800000000000002AA
:1044E00006040C0808101020204000000000000006
:1044F0003C6642475B7342663C00000000000000DF
:1045000018784808080808087E000000000000002D
:104510003C460606040810207E0000000000000053
:104520007C0606043C0202067C000000000000003D
:104530000C1C14246444FF0404000000000000006C
:104540007E6060607E0202067C00000000000000C9
:104550001E306048764242623C00000000000000CD
:104560007E0206040C081810300000000000000055
:104570003C6242361C6642423C00000000000000E3
:104580003C664242661A0204780000000000000007
:1045900000001818000000181800000000000000BB
:1045A0000000181800000018180830000000000073
:1045B000000004183060100C06000000000000002D
:1045C000000000007E007E000000000000000000EF
:1045D0000000301804060C1020000000000000301D
:1045E0001C06060618100010100000000000001C39
:1045F000224141DDB5A5A5AF94C0403C00000000BC
:10460000181C342426627E43C10000000000000014
:104610007C4642467C4242427C0000000000000092
:104620001E204040404040603E000000000000006E
:104630007C464243434342467800000000000000AD
:104640007E6060607E6060607E00000000000000B0
:104650007E6060607E6060606000000000000000BE
:104660001E604040CE4242623E000000000000005A
:10467000424242427E4242424200000000000000AC
:104680007E181818181818187E0000000000000086
:104690007C040404040404447800000000000000CA
:1046A0004244485070584C44420000000000000052
:1046B00020202020202020203E00000000000000BC
:1046C0006266675F5B5BC1C1C10000000000000063
:1046D000626272525A4A4E464600000000000000D4
:1046E0003C6243C3C3C343623C00000000000000BF
:1046F0007C464242467840404000000000000000F6
:104700003C6243C3C3C343623C180F000000000077
:104710007C6662667C6C64666200000000000000DB
:104720003E6040601C0602027C00000000000000A9
:104730007F1818181818181818000000000000003A
:1047400042424242424242623C00000000000000FD
:10475000C14342622624341C1800000000000000FF
:10476000C1C141495B5B7666660000000000000045
:1047700043663418181C2466C300000000000000C3
:10478000C14266341C181818180000000000000010
:104790007E02040C181020607E0000000000001C47
:1047A00010101010101010101010101C00000040FD
:1047B0002020101008080C04060200000000003C35
:1047C0000C0C0C0C0C0C0C0C0C0C0C3C0000000029
:1047D000181C24620000000000000000000000001F
:1047E0000000000000000000000000FF00000020AA
:1047F00010000000000000000000000000000000A9
:1048000000003C06023E42467A00000000000040E4
:1048100040405C62424242427C00000000000000D6
:1048200000001E20604060203E00000000000002EA
:1048300002023E62424242663A000000000000006E
:1048400000003C62427E40603E0000000000000F1D
:104850001810107E10101010100000000000000052
:1048600000003F66426658403E43423C0000004024
:1048700040405C6242424242420000000000001898
:1048800018007808080808087E00000000000004EE
:104890000C007C040404040404040C780000006090
:1048A0006060626C787068646200000000000078EC
:1048B00008080808080808087E000000000000003A
:1048C0000000764B4B4B4B4B4B00000000000000B0
:1048D00000005C62424242424200000000000000D0
:1048E00000003C62424342623C00000000000000C5
:1048F00000005C62424242427C40404000000000B6
:1049000000003E62424242663A020202000000009B
:1049100000006E72636060606000000000000000D4
:1049200000003E20203C06027C0000000000000049
:104930001010FE10101010101E00000000000000EB
:1049400000004242424242663A000000000000007D
:1049500000004342662434181800000000000000E4
:104960000000C1C15B5A5E666600000000000000E6
:10497000000062261C181C266200000000000000D7
:10498000000043426624341C181830E00000000088
:1049900000007E060C1810207E0000000000000EB3
:1049A00018101010307010101010180E00000808A9
:1049B0000808080808080808080808080000003067
:1049C000180808080C0E0808080818300000000035
:1049D00000000000714B0600000000000000000015
:1049E00000000000000000000000000000000000C7
:1049F00000000000000000000000000000000000B7
:104A000000000000000000000000000000000000A6
:104A1000000000000000038001800180018001800F
:104A2000018001800180018001800000000003C03E
:104A300003C00000000000000000000000000000B3
:104A40000000000000000E700E700E700C300000B0
:104A50000000000000000000000000000000000056
:104A60000000000000000000000000000000000046
:104A700000000000000000000618063806307FFE27
:104A80000C300C300C300C307FFE0C601C60186059
:104A9000186000000000000000000000000000009E
:104AA0000000000000C000C00FF83CC831C03180D9
:104AB0003D801F8003F001F8031C030C031C3FF82A
:104AC0003FE00700060000000000000000000000BA
:104AD000000000001C007E0E630C631863307E60D3
:104AE00000C001800300077C0EE61CC618C630C655
:104AF000607C0000000000000000000000000000DA
:104B00000000000000000FE01CF0387038701C60DE
:104B10001FC00F003F8C71CC60EC607C70383CFC97
:104B20001FCE000000000000000000000000000098
:104B300000000000000003C001800180018000002F
:104B40000000000000000000000000000000000065
:104B50000000000000000000000000000000000055
:104B600000000000003000E001C0018003000700E9
:104B7000060006000E000E000E000E0006000700E4
:104B80000300038001C000E00030000000000000CE
:104B9000000000000C0006000380018001C000E05E
:104BA000006000600070007000700060006000E055
:104BB00000C00180038006000C000000000000001F
:104BC000000000000000018011881DB803C007E04C
:104BD0003DBC0188018000000000000000000000D2
:104BE00000000000000000000000000000000000C5
:104BF00000000000000000000000000001800180B3
:104C00000180018001807FFE0180018001800180A0
:104C10000000000000000000000000000000000094
:104C20000000000000000000000000000000000084
:104C300000000000000000000000000003C003C0EE
:104C400001C001C003801F00000000000000000040
:104C50000000000000000000000000000000000054
:104C60000000000000000FF0000000000000000045
:104C70000000000000000000000000000000000034
:104C80000000000000000000000000000000000024
:104C900000000000000000000000000003C003C08E
:104CA00003C0000000000000000000000000000041
:104CB000000000000000001800380030006000E034
:104CC00000C001C001800300030006000E000C00BC
:104CD0001C00180030000000000000000000000070
:104CE00000000000000001800FF01C38381C301C50
:104CF000707E70EE738E7E0E7C0C300C381C1E782D
:104D00000FE00000000000000000000000000000B4
:104D1000000000000000000007C01FC039C001C033
:104D200001C001C001C001C001C001C001C03FFC01
:104D30003FFC000000000000000000000000000038
:104D400000000000000003801FF018380038001831
:104D500000380038007001E0038007001C003FFCB1
:104D60003FFC000000000000000000000000000008
:104D700000000000000007801FF0003800380038F5
:104D8000003007E007F00038001C001C001820F875
:104D90003FE00000000000000000000000000000F4
:104DA000000000000000000000F001B003300730F8
:104DB0000E301C30383070307FFE7FFE0030003007
:104DC00000300000000000000000000000000000B3
:104DD00000000000000000001FF818001800180074
:104DE00018001FE000F8001C001C001C003800F038
:104DF0001FC00000000000000000000000000000D4
:104E0000000000000000000003F80F001C00180064
:104E1000300037F83C3C300C300C380C381C1E3855
:104E20000FF0000000000000000000000000000083
:104E300000000000000000003FFC001C00180038CB
:104E40000070006000E001C00180038007000600E0
:104E50000E00000000000000000000000000000044
:104E600000000000000003C01FF8381C381C381C6C
:104E70001C380FF007F01C78381C300C381C3C38FC
:104E80000FF0000000000000000000000000000023
:104E900000000000000003801FF03838301C701C38
:104EA000700C380C1FFC0FCC001C001800701FE0A9
:104EB0001F80000000000000000000000000000053
:104EC000000000000000000000000000000003C01F
:104ED00003C00180000000000000000003C003C008
:104EE00003C00000000000000000000000000000FF
:104EF000000000000000000000000000000003C0EF
:104F000003C00180000000000000000003C003C0D7
:104F100001C001C003800F0000000000000000007D
:104F2000000000000000000000000000003800F059
:104F300001C007001E0038000E00078001C000708D
:104F40000030000000000000000000000000000031
:104F50000000000000000000000000000000000051
:104F600000003FFC000000003FFC3FFC0000000090
:104F70000000000000000000000000000000000031
:104F80000000000000000000000000001C000F00F6
:104F9000038001E00078001C007001E003800E0037
:104FA0000C000000000000000000000000000000F5
:104FB0000000000000000FC000F00038003800388A
:104FC000003803F0038003000300000000000780A6
:104FD000078000000000000000000000000000004A
:104FE0000000000000E007F80C0C18063006700303
:104FF00063F36633C673CC63CC62CC66CCE6C7FC85
:10500000E0006000700038101FF000000000000099
:10501000000000000000000003C007E006E00E7082
:105020000E700C301C3818183FFC3FFC700E600EE0
:10503000E007000000000000000000000000000089
:1050400000000000000000003FF03838381C381C19
:1050500038383FF03FF8381C380C380C381C3FF813
:105060003FE0000000000000000000000000000021
:1050700000000000000000E007FC1E0438003800BB
:105080003000700070007000300038003C001F9C41
:1050900007FC00000000000000000000000000000D
:1050A00000000000000000003FF03078301C300CA1
:1050B000300E300E300E300E300E301C30383FF0D7
:1050C0003FC00000000000000000000000000000E1
:1050D00000000000000000001FF818001800180071
:1050E00018001FF81FF818001800180018001FF803
:1050F0001FF8000000000000000000000000000099
:1051000000000000000000001FF818001800180040
:1051100018001FF81FF818001800180018001800D1
:105120001800000000000000000000000000000067
:1051300000000000000000F007FC1E0438003000F2
:105140007000700070FC700C700C300C380C1F1C60
:1051500007FC00000000000000000000000000004C
:105160000000000000000000300C300C300C300C4F
:10517000300C3FFC3FFC300C300C300C300C300C51
:10518000300C0000000000000000000000000000E3
:1051900000000000000000003FFC01800180018051
:1051A00001800180018001800180018001803FFC3D
:1051B0003FFC0000000000000000000000000000B4
:1051C00000000000000000001FF000300030003040
:1051D00000300030003000300030003000701DE042
:1051E0001FC00000000000000000000000000000E0
:1051F0000000000000000000381C387038E039C0A2
:105200003B803F003F003B8039C038E03870383881
:10521000381C00000000000000000000000000003A
:1052200000000000000000001C001C001C001C000E
:105230001C001C001C001C001C001C001C001FFC8F
:105240001FFC000000000000000000000000000043
:105250000000000000000000381C7C3C6C3E6E6EBC
:10526000666E66CE63C6638661866006600660060B
:1052700060060000000000000000000000000000C8
:1052800000000000000000003C0C3C0C3E0C360C02
:10529000330C338C318C31CC30EC306C307C303C86
:1052A000301C0000000000000000000000000000B2
:1052B00000000000000001C00FF81C3C381C700EFC
:1052C000700E60066006700E700E700C381C1E7832
:1052D0000FE00000000000000000000000000000DF
:1052E00000000000000000003FF0383C381C380C83
:1052F000380C381C38783FE0380038003800380067
:105300003800000000000000000000000000000065
:1053100000000000000001C00FF81C3C381C700E9B
:10532000700E60066006700E700E700C381C1E78D1
:105330000FE0018001C000FF003C00000000000001
:1053400000000000000000003FF03838381838181E
:10535000383838F03FC038E0387038383838381CC2
:10536000380E0000000000000000000000000000F7
:1053700000000000000001E00FF83800380038009D
:105380003C001F8003F00078001C001C001C3878D3
:105390003FE00000000000000000000000000000EE
:1053A00000000000000000007FFE018001800180FD
:1053B00001800180018001800180018001800180E5
:1053C000018000000000000000000000000000005C
:1053D0000000000000000000300C300C300C300CDD
:1053E000300C300C300C300C300C300C381C1C38AD
:1053F0000FF00000000000000000000000000000AE
:105400000000000000000000E006700E700E381C66
:10541000381C1C181C380C300E70066007E003C0E6
:1054200003C00000000000000000000000000000B9
:1054300000000000000000006006600660066006D4
:105440006186638673C673CE766C366C3C3C3C3C9E
:10545000381C0000000000000000000000000000F8
:105460000000000000000000301C38181C380E70CE
:1054700007E003C003C007E00E701C381838381C62
:10548000700E00000000000000000000000000009E
:105490000000000000000000700E700C381C1C386A
:1054A0000E70066007E003C001800180018001806A
:1054B000018000000000000000000000000000006B
:1054C00000000000000000003FFC001C00380070DD
:1054D00000E001C0038007000E000C0018003FFC34
:1054E0003FFC000000000000000000000000000081
:1054F0000000000007F007F00600060006000600A6
:10550000060006000600060006000600060006006B
:10551000060006000600060007F00000000000007C
:1055200000000000000018001C000C00060007002E
:1055300003000380018001C000C0006000700030E3
:1055400000380018000C00000000000000000000FF
:10555000000000000FE00FE00060006000600060ED
:10556000006000600060006000600060006000603B
:1055700000600060006000600FE0000000000000BC
:10558000000000000000000003C006C006600C30F0
:105590001818301C0000000000000000000000008F
:1055A00000000000000000000000000000000000FB
:1055B00000000000000000000000000000000000EB
:1055C00000000000000000000000000000000000DB
:1055D0000000000000000000FFFF000000000000CD
:1055E0000000000000001E0003800000000000001A
:1055F00000000000000000000000000000000000AB
:10560000000000000000000000000000000000009A
:1056100000000000000000000000000000001FF07B
:105620001038001C001C0FFC1C1C381C381C3CFCD7
:105630001FDC00000000000000000000000000006F
:1056400000000000000038003800380038003BF847
:105650003E1C3C1C380C380C380C380C381C3C7880
:105660001FE000000000000000000000000000003B
:10567000000000000000000000000000000007F82B
:105680000E001C0038003800380038001C000F18CD
:1056900007F800000000000000000000000000000B
:1056A000000000000000001C001C001C001C0FFC7F
:1056B0001C1C381C301C301C301C301C383C1CFCA2
:1056C0000F9C00000000000000000000000000002F
:1056D00000000000000000000000000000000FF0CB
:1056E0001C38381C300C3FFC3000300038001E0CD9
:1056F00007FC0000000000000000000000000000A7
:1057000000000000003C01FE0380030003000300D2
:105710007FFC7FFC03000300030003000300030081
:105720000300000000000000000000000000000076
:1057300000000000000000000000000000000FFE5C
:105740001C383818381818381FF03B8030003FF0EC
:105750001FFC300E700E381C1FF800000000000007
:1057600000000000000038003800380038003BF826
:105770003E383C1C381C381C381C381C381C381C63
:10578000381C0000000000000000000000000000C5
:1057900000000000018003C003C0000000001FC023
:1057A00001C001C001C001C001C001C001C001C0F1
:1057B0003FFC0000000000000000000000000000AE
:1057C00000000000002000700070000000003FF0AA
:1057D0000070007000700070007000700070007049
:1057E00000700070007020E03FC00000000000006A
:1057F0000000000000001800180018001800183CF5
:10580000187018E01B801F001B8019E018701838F2
:10581000181C000000000000000000000000000054
:105820000000000000001FC001C001C001C001C095
:1058300001C001C001C001C001C001C001C001C060
:105840003FFC00000000000000000000000000001D
:1058500000000000000000000000000000006F3C9D
:1058600079EE71CE718E718E718E718E718E718E98
:10587000718E000000000000000000000000000029
:1058800000000000000000000000000000003BF8E5
:105890003E383C1C381C381C381C381C381C381C42
:1058A000381C0000000000000000000000000000A4
:1058B00000000000000000000000000000000FF0E9
:1058C0001C3C381C700E700E700E700C381C1E784C
:1058D0000FE00000000000000000000000000000D9
:1058E00000000000000000000000000000003BF885
:1058F0003E1C3C1C380C380C380C380C381C3C78DE
:105900003FE0380038003800380000000000000098
:1059100000000000000000000000000000000FFC7C
:105920001C1C381C301C301C301C301C383C1CFC2F
:105930000F9C001C001C001C001C0000000000004C
:10594000000000000000000000000000000019F846
:105950001F1C1C0C180E1800180018001800180046
:10596000180000000000000000000000000000001F
:1059700000000000000000000000000000000FF820
:105980001C0018001E000FC001F80018001818387D
:105990001FF00000000000000000000000000000F8
:1059A00000000000000000000600060006007FFC6A
:1059B0000600060006000600060006000700078431
:1059C00001FC0000000000000000000000000000DA
:1059D0000000000000000000000000000000381C73
:1059E000381C381C381C381C381C381C383C1CFC33
:1059F0000FDC0000000000000000000000000000BC
:105A00000000000000000000000000000000700C1A
:105A1000381C38181C380C300E70066007E003C0C4
:105A200003C00000000000000000000000000000B3
:105A30000000000000000000000000000000600600
:105A400060066186738E73CC33CC366C366C3C3C0E
:105A50003C380000000000000000000000000000D2
:105A60000000000000000000000000000000381CE2
:105A70001C380E7007E003C003C007E00E701C382E
:105A8000381E0000000000000000000000000000C0
:105A90000000000000000000000000000000700C8A
:105AA000381C38181C380C300E70066007E003C034
:105AB00003C0038007000E007C000000000000000F
:105AC00000000000000000000000000000001FF8BF
:105AD0000038007000E001C0038007000C001FFCCC
